:080000000C9441000C94000077
:100008000C9400000C9400000C9400000C94000068
:100018000C9400000C9400000C9400000C94000058
:100028000C9400000C94FF010C9400000C94000048
:100038000C9400000C9400000C9400000C94000038
:100048000C9400000C9400000C94000000030000C5
:1000580000000000001E000A141E01003F065B4F4E
:100068000A0004005400040060025E0001006702F8
:10007800620004006D0264000000F894EE27ECBBF7
:10008800F1E0FBBFEBBFE5BF8DE0A2E0BB27ED933E
:100098008A95E9F780E098E0A0E6ED930197E9F703
:1000A800E8E6F0E085919591009761F0A591B5910A
:1000B80005901590BF01F00105900D920197E1F7A9
:1000C800FB01F0CFEFE5EDBFE8E0EEBFC0E6D2E020
:1000D8000C941D02C89902C0E1E08E2E0895C999BA
:1000E80002C0E1E0AE2E0895CA9902C0E1E0BE2E3A
:1000F8000895989B06C0999B04C09A9B02C09B993F
:1001080015C0989903C0E1E0E0936902999903C08A
:10011800E1E0E0936A029A9903C0E1E0E0936B02A0
:100128009B9903C0E1E0E0936C0214C09C9903C062
:10013800E1E0E09369029D9903C0E1E0E0936A027F
:100148009E9903C0E1E0E0936B029F9903C0E1E050
:10015800E0936C02089585D119F410E000E00FC017
:10016800AA81BB81119721F4439411E000E007C0F4
:10017800AA81BB81129719F44A9410E011E0EA8130
:10018800FB81A0916502B0E0EA17FB0769F0103027
:1001980011F4909801C0909A003011F4919801C020
:1001A800919AEA81E093650229C05BD119F410E0C5
:1001B80000E00FC0AA81BB81119721F4639411E07C
:1001C80000E007C0AA81BB81129719F46A9410E075
:1001D80001E0EA81FB81A0916402B0E0EA17FB0725
:1001E80069F0103011F4929801C0929A003011F41D
:1001F800939801C0939AEA81E09364021981088177
:1002080024960895E0916602E03029F4E1E0E09355
:100218006702E0E011C0A0916802A33051F4E0E069
:10022800E0936802E09167020E944D02E093670242
:1002380005C0E0916802EF5FE0936802E091670211
:10024800E03031F0E72DF0E0E359FD4FE08101C0E7
:10025800E0E0E8BB08952397E0E0E983EA830E94A1
:10026800860228EE33E0EE83AE81A43030F5EE81CD
:10027800F0E0E759FD4FE081E030D9F0FAD0E081B5
:100288004E1628F4F6D0A081B0E0E42D04C0A42DC9
:10029800BB27EFD0E081F0E0AE1BBF0BAD014217EA
:1002A80053073CF4E1E0F0E0EF83F8870E81112773
:1002B8009A01EE81EF5FEE83D7CFAF81B8851197B2
:1002C80039F4A0E6B2E0A00FB11FDC90E1E0CE2E39
:1002D8000E948D02299608951A93D0D0AAE0EA02C6
:1002E800F0011E2F4D1408F4165FE12F199108959F
:1002F80089DF552091F4E1E0E0936602E4E16E16AF
:1003080020F4A1E0B0E051DF07C0A0E0B0E04DDF8D
:10031800EAE09E2EE1E05E2E0895E1E0E51541F465
:10032800E0E0E91510F49A9402C0E2E05E2E089528
:10033800E2E0E515A1F4CEDEE1E0E81519F4882441
:1003480055240CC0E0E0E61520F4A2E0B0E02DDF73
:1003580005C0A0E0B0E029DFE3E05E2E0895E3E009
:10036800E515B9F4BCDEC0DEE0E0E0936602E1E04A
:10037800EA1511F0EB1521F4D42CE1E0CE2E06C0DD
:10038800CC2021F4B6DE67DFE3E001C0E4E05E2EB6
:100398000895E4E0E51571F5A2DEA6DEA42DBB27DD
:1003A800EAE0F0E00E946A02309711F467D07E2EEE
:1003B800E1E0EB1511F4BB24AE2EE1E0EA1519F4E7
:1003C8008BDFDE2EAA244D1420F4A1E0B0E0C3DEBA
:1003D80010C0D41420F4A2E0B0E0BDDE0AC0A0E052
:1003E800B0E0B9DE4BD0E759FD4FA0E0A083CC24A4
:1003F8005524089508950A921A92FA926A937A9364
:100408008A939A93AA93BA93EA93FA93EFB7EA93E3
:10041800EEE9E2BF6DDFE991EFBFF991E991B9919A
:10042800A9919991899179916991F9901990099077
:100438001895E0E0EABBEFEFEBBBE7BBE0E0E8BB19
:10044800E4BBEFEFE5BBE1BBE0E0E2BBE5E0E3BF27
:10045800EEE9E2BFE0E0ECBFE1E0E9BF7894FFCF6E
:10046800FFCFBA93AA931A930A93EA81FB81309734
:100478000895EE81F0E0E05AFD4F0895A42DB0E014
:10048800EAE0F0E00E9465020895F195E195F040F8
:100498000895EE23E1E009F0EE27089500241124E1
:1004A80090E1AA0FBB1F001C111C0E1A1F0A18F49A
:1004B8000E0E1F1E01C0A1609A9599F7FD01D0018B
:1004C800089512D0EBDF0EF4E0DF0895E894B7FF4B
:1004D80004C0A095B09511966894F7FDD6DFDEDFCD
:1004E800FD010EF4D2DF0895E894F7FF02C0CDDFD6
:1004F8006894B7FF06C0A095B095119600F80394CC
:1005080000FA08955A934A933A932A931A930A93AE
:1005180008955D814C813B812A8119810881089564
:00000001FF
